:1000000094C00000AEC00000ACC00000AAC0000058
:10001000A8C00000A6C00000A4C00000A2C000004C
:10002000A0C000009EC000009CC00000A0C6000050
:1000300088C7000096C0000094C0000092C0000075
:1000400090C000008EC000008CC000008AC000007C
:1000500088C0000086C0000084C0000062C60000A6
:1000600080C000007EC000007CC000007AC000009C
:1000700078C000002D025B02DD015B02DD01A00201
:10008000BC02DD010903280309023E00020100C091
:1000900032090400000102020100052400011004DD
:1000A0002402060524060001070582030800FF0953
:1000B000040100020A0000000705040218000107FD
:1000C0000583024000011201100102000008EB0349
:1000D0004B2001000102DC011803410072006400A2
:1000E000750069006E006F00200055006E006F0003
:1000F00000003203410072006400750069006E0068
:100100006F00200028007700770077002E00610044
:1001100072006400750069006E006F002E006300BD
:100120006300290000000403090411241FBECFEF5F
:10013000D2E0DEBFCDBF11E0A0E0B1E0E8EBF2E13C
:1001400002C005900D92A631B107D9F712E0A6E1E1
:10015000B1E001C01D92AA3AB107E1F733D70C9480
:100160005A094ECFFC0120911D0130911E01261726
:10017000370758F06115710509F042C08091E80019
:100180008E778093E80020E030E080E02115310593
:1001900029F581110FC02EC09091E80092FD2AC070
:1001A0009EB3992379F19EB3953071F19091E80057
:1001B00090FDAFC09091E80093FFEECF81E00895ED
:1001C0009091E80092FD16C09EB39923D9F09EB39A
:1001D0009530D1F09091E80090FD18C09091E80022
:1001E00093FFEECF81E008958EB3882359F08EB34C
:1001F000853051F08091E80082FFF6CF80E00895CD
:100200009B01C3CF82E0089583E008959091F200AE
:10021000983008F080C0DF01119680818093F10052
:10022000B9016150710941E0490F6115710509F487
:100230007BC0483009F474C0DF011296818180933D
:10024000F100B9016250710942E0490F6115710571
:1002500009F46AC0483009F463C0DF011396828153
:100260008093F100B9016350710943E0490F6115B2
:10027000710509F459C0483009F452C0DF011496E1
:1002800083818093F100B9016450710944E0490F02
:100290006115710509F448C0483009F441C0DF0117
:1002A000159684818093F100B9016550710945E08C
:1002B000490F61157105C1F1483091F1DF011696C2
:1002C00085818093F100B9016650710946E0490FBC
:1002D0006115710549F1483019F1BF01695F7F4F20
:1002E00086818093F100A90147505109995F41151A
:1002F000510531F1973001F587818093F100285045
:100300003109389681E09091E8009E779093E8005B
:100310003DCF9091F20081E09830A9F380E0F3CFD7
:10032000FD019B0181E0EFCF81E0483009F080E0E2
:10033000FD0120E030E0E7CFFB019A0181E0E3CF4F
:1003400081E0983009F080E0FB0120E030E0DBCF75
:10035000CF92DF92EF92FF921F93CF93DF93CDB7AF
:10036000DEB7AA970FB6F894DEBF0FBECDBF3091AF
:10037000F100309317012091F10020931801809132
:10038000F100809319018091F10080931A0180910E
:10039000F10080931B018091F10080931C018091FA
:1003A000F10080931D018091F10080931E01822F46
:1003B00090E08A30910508F44CC08091E80083FFFA
:1003C0002CC08091000190E040911B0150911C01D4
:1003D0004817590711F5213209F44CC308F42BC210
:1003E000223209F421C32332C1F43132B1F48091B5
:1003F000E800877F8093E8008091170187FF04C0A1
:10040000B2C28EB3882349F08091E80080FFF9CF13
:100410008091E8008E778093E8008091E80083FF68
:100420000AC08091EB0080628093EB008091E8002D
:10043000877F8093E800AA960FB6F894DEBF0FBEC0
:10044000CDBFDF91CF911F91FF90EF90DF90CF90C4
:100450000895FC01E65CFF4F27C7303809F4DBC282
:10046000323809F0AACF80911B0187708093E90090
:100470009091EB0095FB992790F91092E9008091FB
:10048000E800877F8093E8009093F1001092F100DC
:100490008091E8008E778093E8008091170187FFB4
:1004A00005C0ABC18EB3882309F4B7CF8091E800B3
:1004B00080FFF8CFADCF332309F4A1C2323009F069
:1004C0007CCF80911901811126C080911B0187701A
:1004D00009F4A3CF8093E9009091EB0090FF9DCFAA
:1004E00090911801933009F432C39091EB00906120
:1004F0009093EB0021E030E0A90102C0440F551FAA
:100500008A95E2F74093EA001092EA008091EB00AE
:1005100088608093EB001092E9008091E800877F6B
:100520008093E8008091170187FF05C06FC18EB3EB
:10053000882309F472CF8091E80080FFF8CF68CF5C
:1005400031113BCF909119018091E800877F809312
:10055000E8008091170187FF05C041C18EB3882351
:1005600009F42CC18091E80080FFF8CF8091E80069
:100570008E778093E80022C180E8830F823008F0F4
:100580001CCF8091190190911A018C3D53E0950781
:1005900009F485C2292F33272230310509F4CAC254
:1005A0002330310509F4B2C22130310509F035CFCD
:1005B00022E130E066EC70E08091E800877F809374
:1005C000E80080911D0190911E018217930708F4A5
:1005D0009C0180E02115310509F0FFC181110FC098
:1005E00009C28091E80082FD05C28EB3882359F0CC
:1005F0008EB3853041F08091E80080FDCFC28091BC
:10060000E80083FFEECF8091E8008B778093E800CD
:1006100004CF303809F0D1CE8091E800877F8093F5
:10062000E80080911F018093F1008091E8008E77AF
:100630008093E8008091170187FF05C08BC18EB3BE
:10064000882309F4EACE8091E80080FFF8CFE0CE5D
:100650003111B3CE80911901823008F0DECE909135
:10066000E800977F9093E80080931F019091170115
:1006700097FF04C0D4C09EB3992359F09091E8002D
:1006800090FFF9CF8091E8008E778093E800809109
:100690001F01811139C283E08EBB89E0EDE0F1E0FA
:1006A000DF011D928A95E9F7409102015091030103
:1006B00080910401811145C292E0609101014930AD
:1006C000510508F42AC328E030E080E08F5F220F54
:1006D000331F24173507D0F38295807F892B6093D1
:1006E000E9009091EB0091609093EB001092ED0087
:1006F00091E89093EC008093ED008091EE0087FFED
:100700008CCE409106015091070180910801811122
:1007100016C292E0609105014930510508F4FBC210
:1007200028E030E080E08F5F220F331F2417350769
:10073000D0F38295807F892B6093E9009091EB0044
:1007400091609093EB001092ED0090E89093EC0094
:100750008093ED008091EE0087FF5FCE40910A010B
:1007600050910B0180910C018111EDC192E06091DB
:1007700009014930510508F4D2C228E030E080E098
:100780008F5F220F331F24173507D0F38295807FA8
:10079000892B6093E9009091EB0091609093EB00BE
:1007A0001092ED0091EC9093EC008093ED0080911D
:1007B000EE0033CE8EB3882309F42FCE8091E8006B
:1007C00080FFF8CF892F8F7709F067C192E09EBB39
:1007D00080688093E30021CE8EB3882379F38091E3
:1007E000E80082FFF9CF8091E8008B778093E800E2
:1007F000E5CF8EB3882309F410CE8091E80082FF04
:10080000F8CF01CF8EB3882309F407CE8091E8009A
:1008100082FFF8CFF8CE9EB3992309F43ACF909196
:10082000E80092FFF8CF8091E8008B778093E80092
:1008300080911F012ECF203209F0EFCD313209F027
:10084000ECCD8091E800877F8093E8004FE051E095
:1008500027E030E00AC08EB3882359F08EB385308C
:1008600041F08091E80082FD8DC08091E80083FF17
:10087000F2CF80911401813009F426C2823009F44C
:100880007EC166E054E012E08EE09CE03AE028E0B1
:1008900040E070911301723009F46FC1862F952FDB
:1008A000242F30911501373009F465C1383009F42F
:1008B00060C1363009F0122F1092C9001092C800A2
:1008C0001092CA00C0900F01D0901001E090110169
:1008D000F0901201B1E0CB16B2ECDB06B1E0EB0612
:1008E000F10408F458C184E085BDC114E1EEDE06D0
:1008F000E104F10409F44CC1D701C601B695A795EE
:1009000097958795BC01CD0160587B47814E9F4FDD
:10091000A7019601A7D4215031093093CD0020932F
:10092000CC001093CA00C114F1EEDF06E104F1041B
:1009300009F4D3C182E08093C80088E98093C9009C
:100940008091E8008E778093E80067CD8EB388238E
:1009500009F463CD8091E80082FFF8CF54CE8EB3C6
:10096000882309F45ACD8091E80082FFF8CF4BCE5E
:100970004F5F5F4F8091F100FA01319780832150E2
:10098000310921F08091F2008111F2CF8091E800CD
:100990008B778093E8002115310509F066CF08C0F8
:1009A0008EB3882309F465CF8EB3853009F461CF07
:1009B0008091E80080FFF4CF5CCF8091E80082FD59
:1009C00019C08EB3882309F41ECE8EB3853009F486
:1009D0001ACE8091E80080FDF2C08091E80083FF8C
:1009E000ECCF11CE8EB3882309F40DCE8EB38530B3
:1009F00009F409CE8091E80082FFF4CF04CE809103
:100A00001901813009F009CD81E0233009F080E03F
:100A10008093200180CD9091210180912001882335
:100A200009F42DCD92602BCD313209F0F6CC8091B6
:100A3000E800877F8093E8008091190180930D0181
:100A400080FD83C05F9A8091170187FF05C00DC0AC
:100A50008EB3882309F4E1CC8091E80080FFF8CFC1
:100A6000D7CC8EB3882309F4D8CC8091E80082FFDC
:100A7000F8CFC9CD313A09F0D0CC8091E800877F1A
:100A80008093E80067E070E08FE091E06BDB80919D
:100A9000E8008B778093E800C0CC93E098CE83E0A9
:100AA0008A838AE289834FB7F894DE01139690E037
:100AB0002EE031E207C0E95CF0E0ED93FD939F5F2B
:100AC000943189F0E22FF0E030935700E49190FFE9
:100AD00003C0E295EF702F5FEF7080E38E0F8A33D3
:100AE00050F7E82FE9CF4FBF8091E800877F8093D0
:100AF000E8006AE270E0CE01019634DB8091E80004
:100B00008B778093E80089CC84E0C6CD992781302B
:100B1000910549F18230910501F1892B09F07DCCD5
:100B2000E6E2F1E0249130E0BF012115310509F43E
:100B300074CC42CD2EE330E068E870E03DCD96E025
:100B4000E9CD96E0BACD96E012CE5F987CCF809149
:100B5000EB0080628093EB00DECCE8EDF0E02491C6
:100B600030E0BF01E2CFE2EFF0E0249130E0BF01DE
:100B7000DCCF182FA1CE192F9FCE132F92CE66E275
:100B800054E212E28EE29CE23AE228E240E281CEB6
:100B900020E130E0C2CE83E085BDA7CE9091F20087
:100BA00081E0983009F080E0A0E0B0E0AB019091E6
:100BB000E8009E779093E800BA019D010BCD9091DB
:100BC000F200983008F0A0C0AB014F5F5F4FFB010F
:100BD00084918093F100D9011197E1E0E90F10971A
:100BE00009F48EC0E83009F489C07B01F2E0EF0E11
:100BF000F11CFA0144914093F100D901129742E0AF
:100C0000490F109709F474C0483009F46EC0AB0165
:100C10004D5F5F4FF701E490E092F100D901139727
:100C2000E3E0E90F109709F46BC0E83009F466C0FF
:100C30007B01F4E0EF0EF11CFA0144914093F100C6
:100C4000D901149744E0490F109709F451C0483076
:100C500009F44BC0AB014B5F5F4FF701E490E092AA
:100C6000F100D9011597E5E0E90F109709F448C0A4
:100C7000E83009F443C07B01F6E0EF0EF11CFA0105
:100C800044914093F100D901169746E0490F10971F
:100C900079F1483051F1AB01495F5F4FF701E490C2
:100CA000E092F100D9011797995F1097C1F0973042
:100CB00029F5685F7F4FFA0144914093F100D90113
:100CC0001897AB0181E073CF66E354E312E38EE340
:100CD0009CE33AE328E340E3DCCD80E02CCE81E0E6
:100CE000983009F464CF80E062CFA70181E05FCF44
:100CF00081E0483009F080E0A70159CF81E057CF6B
:100D000081E0E83081F753CF81E0983009F080E04E
:100D1000D901AB014CCF80E00CCD80E0DDCC80E090
:100D200035CD1F920F920FB60F9211248F939F9380
:100D3000EF93FF939091CE008EB3843079F480913D
:100D40002201E82FF0E0E855FE4F90838F5F8093FB
:100D500022018091A9028F5F8093A902FF91EF91F8
:100D60009F918F910F900FBE0F901F9018951F921B
:100D70000F920FB60F9211248F939F938091E100F1
:100D800080FF04C08091E20080FD4EC08091E100B0
:100D900084FF27C08091E20084FF23C084E089BDE6
:100DA00089B5826089BD09B400FEFDCF8091D8006D
:100DB0008F7D8093D8008091E1008F7E8093E10049
:100DC0008091E2008F7E8093E2008091E20081605A
:100DD0008093E20080911F01882309F4AFC084E072
:100DE0008EBB8091E10083FF04C08091E20083FD0F
:100DF00032C08091E10082FF04C08091E20082FD58
:100E000007C09F918F910F900FBE0F901F90189564
:100E10008091E1008B7F8093E1009F918F910F90F3
:100E20000FBE0F901F9018958091E1008E7F8093E8
:100E3000E1008091E2008E7F8093E2008091E200E9
:100E400080618093E2008091D80080628093D80016
:100E500019BC1EBA9BCF8091E100877F8093E1008F
:100E600082E08EBB10921F019091E1009E7F9093D3
:100E7000E1009091E2009E7F9093E2009091E20069
:100E800090619093E2001092F4001092E9001092A9
:100E9000F0001092E8001092ED009091EB009E7F20
:100EA0009093EB0091E09093E9001092F000109283
:100EB000E8001092ED009091EB009E7F9093EB0084
:100EC0008093E9001092F0001092E8001092ED007B
:100ED0009091EB009E7F9093EB0093E09093E9005C
:100EE0001092F0001092E8001092ED009091EB004B
:100EF0009E7F9093EB0094E09093E9001092F000B5
:100F00001092E8001092ED009091EB009E7F90937C
:100F1000EB001092E9009091EB0091609093EB0050
:100F20001092ED001092EC008093ED008091EE00A5
:100F30008091F00088608093F0005BCF81E08EBBF1
:100F400050CF1F920F920FB60F921124FF920F9362
:100F50001F932F933F934F935F936F937F938F9341
:100F60009F93AF93BF93CF93DF93EF93FF93C9EE1C
:100F7000D0E088818770F82E188200EF10E0F80129
:100F80008081877F80837894E3D9F8941882F80170
:100F9000808188608083F882FF91EF91DF91CF910B
:100FA000BF91AF919F918F917F916F915F914F9181
:100FB0003F912F911F910F91FF900F900FBE0F90B7
:100FC0001F90189584B7877F84BF88E10FB6F89487
:100FD00080936000109260000FBE27E630E03093EF
:100FE000CD002093CC0096E09093CA001092C800E8
:100FF0008093C900539A5A9A8AB180638AB98BB197
:1010000080638BB91092E2001092E1001EBA109238
:101010001F01109220011092210184E089BD89B541
:10102000826089BD09B400FEFDCF8091D800982F61
:101030009F779093D80080688093D8008091630058
:101040008E7F809363008091D8008F7D8093D8003D
:101050008091E0008E7F8093E0008091E1008E7FA0
:101060008093E1008091E20081608093E2008091B2
:10107000E100877F8093E1008091E20088608093A7
:10108000E20081E08093160183E085BD5F9A579A64
:101090007894D0E003E010E435B331708091A90278
:1010A000803420F4332331F0882321F09EB3943030
:1010B00009F44DC0DF3708F467C08091C80085FF90
:1010C00011C080912301E82FF0E0EC5DFE4F90818C
:1010D0009093CE008F5F8F7780932301D1505C98DF
:1010E0000093A6013323C9F0A89A8091A501882313
:1010F00041F08091A50181508093A501811101C02B
:101100005D9A8091A601882341F08091A6018150CB
:101110008093A601811101C05C9A8EB3882309F4E3
:10112000BBCFC091E900C7701092E9008091E80040
:1011300083FD45C0C093E90035B331708091A902A9
:10114000803408F4AFCF9EB3943009F0B3CF409110
:101150000F01509110016091110170911201452B06
:10116000462B472B09F4A6CF909101019093E900FB
:101170009091E80095FD4BC08091E8008E778093B8
:10118000E800DF3708F099CF8EB38430A1F4809166
:101190000F0190911001A0911101B0911201892BC2
:1011A0008A2B8B2B41F0809105018093E90080917F
:1011B000E80082FD06C0DD2309F494CF7ECFC8D8B5
:1011C000B9CF8091F2008823C1F09091F100809115
:1011D000F200811105C08091E8008B778093E800D0
:1011E0008091A401E82FF0E0EC5DFE4F90838F5FCB
:1011F0008F778093A401DF5F60CF8091F20081112F
:10120000DACF8091E8008B778093E800D4CF90917B
:10121000F200412F491B841708F5282F482F809191
:10122000A802280FE82FF0E0E855FE4F9081909338
:10123000F1008F5F8213F6CF9091E8009E77909334
:10124000E8008093A802F8948091A902841B8093FF
:10125000A90278945D980093A50144CF242F4817E4
:10126000F0F2DCCFA1E21A2EAA1BBB1BFD010DC0C0
:10127000AA1FBB1FEE1FFF1FA217B307E407F50746
:1012800020F0A21BB30BE40BF50B661F771F881F22
:10129000991F1A9469F760957095809590959B01B8
:1012A000AC01BD01CF010895EE0FFF1F0590F49131
:0812B000E02D0994F894FFCF32
:1012B80000034000010418000002080000000000BC
:0612C80000000000000020
:00000001FF
