:1000000094C00000A2C00000A0C000009EC000007C
:100010009CC000009AC0000098C0000096C000007C
:1000200094C0000092C0000090C00000C6C3000051
:100030008CC000008AC0000088C0000086C000009C
:1000400084C0000082C0000080C000007EC00000AC
:100050007CC000007AC0000078C0000092C300009D
:1000600099C3000072C0000070C000006EC00000A4
:100070006CC000003B015701C1025701C1028C0155
:10008000A901C1025B026B0209023E00020100C02D
:1000900032090400000102020100052400011004DD
:1000A0002402060524060001070582030800FF0953
:1000B000040100020A0000000705040220000107F5
:1000C0000583024000011201100102000008EB0349
:1000D0004B2002000102DC011803410072006400A1
:1000E000750069006E006F00200055006E006F0003
:1000F00000003203410072006400750069006E0068
:100100006F00200028007700770077002E00610044
:1001100072006400750069006E006F002E006300BD
:100120006300290000000403090411241FBECFEF5F
:10013000D2E0DEBFCDBF12E0A0E8B2E001C01D9268
:10014000A239B107E1F7E1D32DC55ACF80918002E2
:1001500087FF0FC08091E80082FD04C08BB581113C
:10016000F9CF10C08091E8008B770AC08BB5882347
:1001700049F08091E80080FFF9CF8091E8008E7708
:100180008093E80008952091860230918702261717
:10019000370748F06115710539F42091E8002E7792
:1001A0002093E80001C0B90130E06115710561F1EB
:1001B0002091E80023FD37C02091E80022FD2DC0EA
:1001C0002BB5222391F12BB5253089F12091E80040
:1001D00020FFEBCF2091F200FC01CF0161157105EA
:1001E00049F0283038F481918093F1006150710911
:1001F0002F5FF3CF31E0283009F030E02091E800A4
:100200002E772093E800D1CF3111D2CF06C08BB525
:10021000882359F08BB5853051F08091E80082FF3A
:10022000F6CF80E0089581E0089582E0089583E0AC
:1002300008951F93CF93DF93CDB7DEB7AA970FB67C
:10024000F894DEBF0FBECDBFE0E8F2E088E08E0F8D
:100250009091F10091938E13FBCF80918002909149
:100260008102492F50E04A30510508F08AC1FA0155
:10027000E65CFF4F91C4803809F465C2823809F00A
:1002800080C18091840287708093E9008091EB00A7
:100290001092E9009091E800977F9093E80085FB29
:1002A000882780F98093F1001092F10010C1282F67
:1002B0002D7F09F066C1823009F045C2809182022B
:1002C000811127C080918402877009F43CC2809319
:1002D000E9002091EB0020FF36C2933021F4809199
:1002E000EB00806214C09091EB0090619093EB0062
:1002F00021E030E0A90102C0440F551F8A95E2F7C2
:100300004093EA001092EA008091EB0088608093AD
:10031000EB001092E90011C2811133C110918202E9
:100320008091E800877F8093E80010DF8091E800EB
:1003300080FD04C08BB58111F9CF05C2812F8F7765
:1003400011F492E001C093E09BBD80688093E300CC
:10035000FAC120E8280F223008F013C180918202F0
:10036000909183028C3D53E0950771F583E08A8379
:100370008AE289833FB7F894DE01139690E02EE07D
:1003800041E2E22FF0E040935700E49190FF03C078
:10039000E295EF702F5FEF7080E38E0F8A3310F0DD
:1003A000E95C01C0E82FF0E0ED93FD939F5F94318D
:1003B00041F73FBF8091E800877F8093E8006AE2C1
:1003C00070E0CE01019601C1292F3327223031057B
:1003D00041F02330310551F02130310509F0B3C12E
:1003E000C1C18EE390E028E830E018C09927813041
:1003F000910549F08230910549F0892B09F0A3C19C
:10040000E6E2F1E005C0E2EFF0E002C0E8EDF0E086
:10041000849190E09F01009709F495C14091E80014
:10042000477F4093E8004091860250918702481729
:10043000590708F4CA0150E0009769F14091E800BB
:1004400043FDC4C04091E80042FD30C04BB5442399
:1004500009F4BCC04BB5453009F4B8C04091E80080
:1004600040FFEACF4091F200F9019F01009749F067
:10047000483038F424912093F10001974F5F319672
:10048000F4CF51E0483009F050E04091E8004E7759
:100490004093E800D1CF5111D1CF08C08BB588234C
:1004A00009F494C08BB5853009F490C08091E800C0
:1004B00082FFF4CF8BC0803809F063C08091E800E0
:1004C000877F8093E800809188028093F10080917B
:1004D000E8008E7735C1811154C01091820212302C
:1004E00008F031C18091E800877F8093E800109385
:1004F00088022CDE111102C083E001C084E08BBDB4
:1005000088E0E9E8F2E0DF011D928A95E9F792E0E0
:100510009093E9008091EB0081608093EB00109252
:10052000ED0081EC8093EC009093ED008091EE0063
:1005300087FF09C183E08093E9008091EB0081602F
:100540008093EB001092ED0081E88093EC0086E34D
:100550008093ED008091EE0087FFF5C084E08093EA
:10056000E9008091EB0081608093EB001092ED0038
:1005700080E88093EC0082E28093ED008091EE00B1
:10058000E2C02091E80023FFDEC020918402309178
:100590008502232B09F0D7C0913259F018F490321C
:1005A000C9F0D1C0923209F4B5C0933209F4C3C086
:1005B000CAC0813A09F0C7C08091E800877F809364
:1005C000E80067E070E08AE892E0DDDD8091E80015
:1005D0008B779DC0813209F0B6C08091E800877F9B
:1005E0008093E8002AE832E087E090E0009739F154
:1005F0004091E80043FD27C04BB5442321F14BB5A2
:10060000453009F14091E80042FFF0CF4091F200FF
:10061000442349F02F5F3F4F4091F100F90131979A
:100620004083019799F74091E8004B774093E800A9
:10063000DDCF8BB5882339F08BB5853021F08091E3
:10064000E80080FFF6CF80918F02813021F0823068
:1006500021F410E203C010E301C010E080918E028B
:10066000823009F4186080919002873031F0883030
:1006700031F0863029F4126003C0146001C01660A6
:100680001092C9001092C8001092CA001EBA1092AF
:10069000910220918A0230918B0240918C025091FC
:1006A0008D02211531054105510571F12115B1EE7C
:1006B0003B0741055105C1F0DA01C901B695A7957F
:1006C00097958795BC01CD0160587B47814E9F4F20
:1006D00041D22150310920FD04C0211540E13407E9
:1006E00038F03695279502C020E130E080E001C067
:1006F00082E03093CD002093CC001093CA00809309
:10070000C80088E98093C9008091E8008E778093C3
:10071000E80019C08132B9F48091E800877F8093A6
:10072000E800809182028093890280FF02C05F9876
:1007300009C05F9A07C0813231F48091E800877F59
:100740008093E80003DD8091E80083FF10C0809172
:10075000EB0080628093EB008091E800877F8093BC
:10076000E80005C082E190E026EC30E057CEAA9682
:100770000FB6F894DEBF0FBECDBFDF91CF911F91B2
:1007800008953090CE002F01EAB5F1E03192EABD34
:10079000F20118952F01EEB3F2E031903092CE00C5
:1007A000EEBBF798F2012EB230909102231018950B
:1007B000E8E9E093C900F20118951F920F920FB675
:1007C0000F9211248F939F938091E10080FF1AC0B4
:1007D0008091E20080FF16C08091E1008E7F8093BF
:1007E000E1008091E2008E7F8093E2008091E20040
:1007F00080618093E2008091D80080628093D8006D
:1008000019BC1BBC8091E10084FF28C08091E200EC
:1008100084FF24C084E089BD89B5826089BD09B4A4
:1008200000FEFDCF8091D8008F7D8093D80080910D
:10083000E1008F7E8093E1008091E2008F7E8093C3
:10084000E2008091E20081608093E2008091880262
:10085000811102C081E001C084E08BBD8091E10084
:1008600083FF3FC08091E20083FF3BC08091E100A5
:10087000877F8093E10082E08BBD10928802809197
:10088000E1008E7F8093E1008091E2008E7F809373
:10089000E2008091E20080618093E2001092F40017
:1008A00080E08093E9001092F0001092E80010922E
:1008B000ED009091EB009E7F9093EB008F5F853071
:1008C00081F71092E9008091EB0081608093EB004A
:1008D0001092ED001092EC0082E08093ED00809188
:1008E000EE008091E10082FF09C08091E20082FF6A
:1008F00005C08091E1008B7F8093E1009F918F91F3
:100900000F900FBE0F901F90189584B7877F84BFFC
:1009100088E10FB6F89480936000109260000FBEDB
:1009200027E630E03093CD002093CC0096E0909302
:10093000CA001092C8008093C9005B9A539A5A9AD1
:100940008AB180638AB98BB180638BB91092E2005F
:100950001092E1001BBC1092880284E089BD89B529
:10096000826089BD09B400FEFDCF8091D800982F28
:100970009F779093D80080688093D800809163001F
:100980008E7F809363008091D8008F7D8093D80004
:100990008091E0008E7F8093E0008091E1008E7F67
:1009A0008093E1008091E20081608093E200809179
:1009B000E100877F8093E1008091E200886080936E
:1009C000E20084E085BD80E49FE1909389008093FC
:1009D00088001092800089E0809381005F9A579A86
:1009E0001EBA789401E082E0F82E93E0E92E24E02C
:1009F000D22E38EBC32EF8948091C9008F77809364
:100A0000C90078941092E9008091E80083FD11DC20
:100A10008BB58430C9F7F8948091C90080688093C1
:100A2000C900789405BBF6BABAB4D0E010E0C0E0D3
:100A3000809191022EB340918A0250918B02609175
:100A40008C0270918D02411551056105710561F1AE
:100A5000D092E9009091E80092FF26C09091F200B8
:100A6000911106C08091E8008B778093E8001CC04C
:100A70009091F2009923C1F0821B80958F7789179E
:100A800098F0F2E0E09191028091F1008193EF778C
:100A90009150D1F78091E8008B778093E800E09344
:100AA0009102C092C90005C0909191028EB398172F
:100AB00011F05C98D3E08AB58B19B19B13C0F6BADC
:100AC000882391F0452B462B472B71F0E092E900EB
:100AD0009091E80095FD2BC09091E8009E7790934F
:100AE000E80002C08F3370F7C81739F01092850004
:100AF000109284005D98C82F13E0A89B0BC005BB23
:100B0000112319F0115009F45D9ADD2319F0D15029
:100B100009F45C9A1092E9008091E80083FD89DB7A
:100B20008BB5843009F484CF5D9A5C9A64CF8F339F
:100B300008F08FE3C81BEB2DF1E091919093F10049
:100B40008150D1F78091E8008E778093E800BE2E27
:100B50008C2FCCCFA1E21A2EAA1BBB1BFD010DC00E
:100B6000AA1FBB1FEE1FFF1FA217B307E407F5075D
:100B700020F0A21BB30BE40BF50B661F771F881F39
:100B8000991F1A9469F760957095809590959B01CF
:100B9000AC01BD01CF010895EE0FFF1F0590F49148
:080BA000E02D0994F894FFCF49
:00000001FF
